{
    "_format": "hh-sol-artifact-1",
    "contractName": "Transactions",
    "sourceName": "contracts/Transactions.sol",
    "abi": [
        {
            "anonymous": false,
            "inputs": [
                {
                    "indexed": false,
                    "internalType": "address",
                    "name": "from",
                    "type": "address"
                },
                {
                    "indexed": false,
                    "internalType": "address",
                    "name": "receiver",
                    "type": "address"
                },
                {
                    "indexed": false,
                    "internalType": "uint256",
                    "name": "amount",
                    "type": "uint256"
                },
                {
                    "indexed": false,
                    "internalType": "string",
                    "name": "message",
                    "type": "string"
                },
                {
                    "indexed": false,
                    "internalType": "uint256",
                    "name": "timestamp",
                    "type": "uint256"
                },
                {
                    "indexed": false,
                    "internalType": "string",
                    "name": "keyword",
                    "type": "string"
                }
            ],
            "name": "Transfer",
            "type": "event"
        },
        {
            "inputs": [
                {
                    "internalType": "address payable",
                    "name": "receiver",
                    "type": "address"
                },
                {
                    "internalType": "uint256",
                    "name": "amount",
                    "type": "uint256"
                },
                {
                    "internalType": "string",
                    "name": "message",
                    "type": "string"
                },
                {
                    "internalType": "string",
                    "name": "keyword",
                    "type": "string"
                }
            ],
            "name": "addToBlockChain",
            "outputs": [],
            "stateMutability": "nonpayable",
            "type": "function"
        },
        {
            "inputs": [],
            "name": "getAllTransactions",
            "outputs": [
                {
                    "components": [
                        {
                            "internalType": "address",
                            "name": "sender",
                            "type": "address"
                        },
                        {
                            "internalType": "address",
                            "name": "receiver",
                            "type": "address"
                        },
                        {
                            "internalType": "uint256",
                            "name": "amount",
                            "type": "uint256"
                        },
                        {
                            "internalType": "string",
                            "name": "message",
                            "type": "string"
                        },
                        {
                            "internalType": "uint256",
                            "name": "timestamp",
                            "type": "uint256"
                        },
                        {
                            "internalType": "string",
                            "name": "keyword",
                            "type": "string"
                        }
                    ],
                    "internalType": "struct Transactions.TransferStruct[]",
                    "name": "",
                    "type": "tuple[]"
                }
            ],
            "stateMutability": "view",
            "type": "function"
        },
        {
            "inputs": [],
            "name": "getTransctionsCount",
            "outputs": [
                {
                    "internalType": "uint256",
                    "name": "",
                    "type": "uint256"
                }
            ],
            "stateMutability": "view",
            "type": "function"
        }
    ],
    "bytecode": "0x608060405234801561001057600080fd5b50610e37806100206000396000f3fe608060405234801561001057600080fd5b50600436106100415760003560e01c806320b45e471461004657806327506f5314610064578063b2da096014610082575b600080fd5b61004e61009e565b60405161005b91906104b7565b60405180910390f35b61006c6100a7565b604051610079919061070d565b60405180910390f35b61009c600480360381019061009791906108e2565b6102ea565b005b60008054905090565b60606001805480602002602001604051908101604052809291908181526020016000905b828210156102e157838290600052602060002090600602016040518060c00160405290816000820160009054906101000a900473ffffffffffffffffffffffffffffffffffffffff1673ffffffffffffffffffffffffffffffffffffffff1673ffffffffffffffffffffffffffffffffffffffff1681526020016001820160009054906101000a900473ffffffffffffffffffffffffffffffffffffffff1673ffffffffffffffffffffffffffffffffffffffff1673ffffffffffffffffffffffffffffffffffffffff168152602001600282015481526020016003820180546101b4906109b0565b80601f01602080910402602001604051908101604052809291908181526020018280546101e0906109b0565b801561022d5780601f106102025761010080835404028352916020019161022d565b820191906000526020600020905b81548152906001019060200180831161021057829003601f168201915b5050505050815260200160048201548152602001600582018054610250906109b0565b80601f016020809104026020016040519081016040528092919081815260200182805461027c906109b0565b80156102c95780601f1061029e576101008083540402835291602001916102c9565b820191906000526020600020905b8154815290600101906020018083116102ac57829003601f168201915b505050505081525050815260200190600101906100cb565b50505050905090565b60016000808282546102fc9190610a10565b9250508190555060016040518060c001604052803373ffffffffffffffffffffffffffffffffffffffff1681526020018673ffffffffffffffffffffffffffffffffffffffff16815260200185815260200184815260200142815260200183815250908060018154018082558091505060019003906000526020600020906006020160009091909190915060008201518160000160006101000a81548173ffffffffffffffffffffffffffffffffffffffff021916908373ffffffffffffffffffffffffffffffffffffffff16021790555060208201518160010160006101000a81548173ffffffffffffffffffffffffffffffffffffffff021916908373ffffffffffffffffffffffffffffffffffffffff1602179055506040820151816002015560608201518160030190816104349190610c12565b506080820151816004015560a08201518160050190816104549190610c12565b5050507f416cfa4330a4565f45c2fd2dd4826a83a37443aba2ce6f79477c7355afac35fa33858585428660405161049096959493929190610d92565b60405180910390a150505050565b6000819050919050565b6104b18161049e565b82525050565b60006020820190506104cc60008301846104a8565b92915050565b600081519050919050565b600082825260208201905092915050565b6000819050602082019050919050565b600073ffffffffffffffffffffffffffffffffffffffff82169050919050565b6000610529826104fe565b9050919050565b6105398161051e565b82525050565b6105488161049e565b82525050565b600081519050919050565b600082825260208201905092915050565b60005b8381101561058857808201518184015260208101905061056d565b83811115610597576000848401525b50505050565b6000601f19601f8301169050919050565b60006105b98261054e565b6105c38185610559565b93506105d381856020860161056a565b6105dc8161059d565b840191505092915050565b600060c0830160008301516105ff6000860182610530565b5060208301516106126020860182610530565b506040830151610625604086018261053f565b506060830151848203606086015261063d82826105ae565b9150506080830151610652608086018261053f565b5060a083015184820360a086015261066a82826105ae565b9150508091505092915050565b600061068383836105e7565b905092915050565b6000602082019050919050565b60006106a3826104d2565b6106ad81856104dd565b9350836020820285016106bf856104ee565b8060005b858110156106fb57848403895281516106dc8582610677565b94506106e78361068b565b925060208a019950506001810190506106c3565b50829750879550505050505092915050565b600060208201905081810360008301526107278184610698565b905092915050565b6000604051905090565b600080fd5b600080fd5b600061074e826104fe565b9050919050565b61075e81610743565b811461076957600080fd5b50565b60008135905061077b81610755565b92915050565b61078a8161049e565b811461079557600080fd5b50565b6000813590506107a781610781565b92915050565b600080fd5b600080fd5b7f4e487b7100000000000000000000000000000000000000000000000000000000600052604160045260246000fd5b6107ef8261059d565b810181811067ffffffffffffffff8211171561080e5761080d6107b7565b5b80604052505050565b600061082161072f565b905061082d82826107e6565b919050565b600067ffffffffffffffff82111561084d5761084c6107b7565b5b6108568261059d565b9050602081019050919050565b82818337600083830152505050565b600061088561088084610832565b610817565b9050828152602081018484840111156108a1576108a06107b2565b5b6108ac848285610863565b509392505050565b600082601f8301126108c9576108c86107ad565b5b81356108d9848260208601610872565b91505092915050565b600080600080608085870312156108fc576108fb610739565b5b600061090a8782880161076c565b945050602061091b87828801610798565b935050604085013567ffffffffffffffff81111561093c5761093b61073e565b5b610948878288016108b4565b925050606085013567ffffffffffffffff8111156109695761096861073e565b5b610975878288016108b4565b91505092959194509250565b7f4e487b7100000000000000000000000000000000000000000000000000000000600052602260045260246000fd5b600060028204905060018216806109c857607f821691505b6020821081036109db576109da610981565b5b50919050565b7f4e487b7100000000000000000000000000000000000000000000000000000000600052601160045260246000fd5b6000610a1b8261049e565b9150610a268361049e565b9250827fffffffffffffffffffffffffffffffffffffffffffffffffffffffffffffffff03821115610a5b57610a5a6109e1565b5b828201905092915050565b60008190508160005260206000209050919050565b60006020601f8301049050919050565b600082821b905092915050565b600060088302610ac87fffffffffffffffffffffffffffffffffffffffffffffffffffffffffffffffff82610a8b565b610ad28683610a8b565b95508019841693508086168417925050509392505050565b6000819050919050565b6000610b0f610b0a610b058461049e565b610aea565b61049e565b9050919050565b6000819050919050565b610b2983610af4565b610b3d610b3582610b16565b848454610a98565b825550505050565b600090565b610b52610b45565b610b5d818484610b20565b505050565b5b81811015610b8157610b76600082610b4a565b600181019050610b63565b5050565b601f821115610bc657610b9781610a66565b610ba084610a7b565b81016020851015610baf578190505b610bc3610bbb85610a7b565b830182610b62565b50505b505050565b600082821c905092915050565b6000610be960001984600802610bcb565b1980831691505092915050565b6000610c028383610bd8565b9150826002028217905092915050565b610c1b8261054e565b67ffffffffffffffff811115610c3457610c336107b7565b5b610c3e82546109b0565b610c49828285610b85565b600060209050601f831160018114610c7c5760008415610c6a578287015190505b610c748582610bf6565b865550610cdc565b601f198416610c8a86610a66565b60005b82811015610cb257848901518255600182019150602085019450602081019050610c8d565b86831015610ccf5784890151610ccb601f891682610bd8565b8355505b6001600288020188555050505b505050505050565b610ced8161051e565b82525050565b6000610d0e610d09610d04846104fe565b610aea565b6104fe565b9050919050565b6000610d2082610cf3565b9050919050565b6000610d3282610d15565b9050919050565b610d4281610d27565b82525050565b600082825260208201905092915050565b6000610d648261054e565b610d6e8185610d48565b9350610d7e81856020860161056a565b610d878161059d565b840191505092915050565b600060c082019050610da76000830189610ce4565b610db46020830188610d39565b610dc160408301876104a8565b8181036060830152610dd38186610d59565b9050610de260808301856104a8565b81810360a0830152610df48184610d59565b905097965050505050505056fea2646970667358221220901e4c4dcb131303aaea17c6643d8aef07b2c1b0d847ddd6dcf3a9f8a9ebee4364736f6c634300080f0033",
    "linkReferences": {},
    "deployedLinkReferences": {}
}